:100000000C9462000C948A000C948A000C948A0070
:100010000C948A000C948A000C948A000C948A0038
:100020000C948A000C948A000C948A000C948A0028
:100030000C948A000C948A000C948A000C948A0018
:100040000C945E030C948A000C94CE030C94A803C9
:100050000C948A000C948A000C948A000C948A00F8
:100060000C948A000C948A000000000024002700F1
:100070002A0000000000250028002B0000000000DE
:1000800023002600290004040404040404040202DA
:100090000202020203030303030301020408102007
:1000A0004080010204081020010204081020000012
:1000B0000008000201000003040700000000000027
:1000C0000000000411241FBECFEFD8E0DEBFCDBF7B
:1000D00022E0AAE9B1E001C01D92AA34B207E1F71B
:1000E00011E0A0E0B1E0E0E4F0E102C005900D9283
:1000F000AA39B107D9F710E0C2E6D0E004C02197D1
:10010000FE010E942606C136D107C9F70E944604A7
:100110000C941E080C940000833081F028F4813088
:1001200099F08230A9F008958730A9F08830C9F09D
:100130008430B1F4809180008F7D03C08091800075
:100140008F7780938000089584B58F7784BD08955C
:1001500084B58F7DFBCF8091B0008F778093B00006
:1001600008958091B0008F7DF9CFCF93DF93282F32
:1001700030E0F901E255FF4F8491F901E656FF4F57
:10018000D491F901EA57FF4FC491CC23A1F081111A
:100190000E948C00EC2FF0E0EE0FFF1FE458FF4FA1
:1001A000A591B491EC91ED2381E090E009F480E019
:1001B000DF91CF91089580E090E0FACF1F93CF9325
:1001C000DF93282F30E0F901E255FF4F8491F901C8
:1001D000E656FF4FD491F901EA57FF4FC491CC2363
:1001E000A9F0162F81110E948C00EC2FF0E0EE0F89
:1001F000FF1FEE58FF4FA591B4918FB7F894EC9183
:10020000111108C0D095DE23DC938FBFDF91CF9111
:100210001F910895DE2BF8CFCF93DF9390E0FC0180
:10022000E656FF4F24918A579F4FFC018491882303
:10023000D1F090E0880F991FFC01E859FF4FA5917C
:10024000B491FC01EE58FF4FC591D49161110EC0DD
:100250009FB7F8948C91E22FE0958E238C932881A0
:10026000E223E8839FBFDF91CF9108958FB7F89481
:10027000EC91E22BEC938FBFF6CF3FB7F8948091CF
:100280009F019091A001A091A101B091A20126B57A
:10029000A89B05C02F3F19F00196A11DB11D3FBFBE
:1002A000BA2FA92F982F8827BC01CD01620F711D8D
:1002B000811D911D42E0660F771F881F991F4A9587
:1002C000D1F708958F929F92AF92BF92CF92DF9213
:1002D000EF92FF926B017C010E943D014B015C019A
:1002E000C114D104E104F104B9F00E943D01681980
:1002F00079098A099B09683E73408105910580F35D
:1003000021E0C21AD108E108F10888EE880E83E0E6
:10031000981EA11CB11CE4CFFF90EF90DF90CF900E
:10032000BF90AF909F908F900895AF92BF92CF9261
:10033000DF92EF92FF920F931F93CF93DF936C01A5
:100340007B018B01040F151FEB015E01AE18BF0886
:10035000C017D10759F06991D601ED91FC91019038
:10036000F081E02DC6010995892B79F7C501DF9150
:10037000CF911F910F91FF90EF90DF90CF90BF90A2
:10038000AF900895FC01538D448D252F30E0842FCC
:1003900090E0821B930B541710F0CF9608950197AD
:1003A0000895FC01918D828D981761F0A28DAE0F9A
:1003B000BF2FB11D5D968C91928D9F5F9F73928F21
:1003C00090E008958FEF9FEF0895FC01918D828D4D
:1003D000981731F0828DE80FF11D858D90E008951A
:1003E0008FEF9FEF0895FC01918D228D892F90E072
:1003F000805C9F4F821B91098F739927089583EA30
:1004000091E00E94F30121E0892B09F420E0822F82
:10041000089580E090E0892B29F00E94FF0181116E
:100420000C9400000895FC01A48DA80FB92FB11DF4
:10043000A35ABF4F2C91848D90E001968F7399271A
:10044000848FA689B7892C93A089B1898C918370F8
:1004500080648C93938D848D981306C00288F389F1
:10046000E02D80818F7D80830895EF92FF920F931E
:100470001F93CF93DF93EC0181E0888F9B8D8C8D50
:1004800098131AC0E889F989808185FF15C09FB744
:10049000F894EE89FF896083E889F9898081837007
:1004A000806480839FBF81E090E0DF91CF911F91B6
:1004B0000F91FF90EF900895F62E0B8D10E00F5FD7
:1004C0001F4F0F731127E02E8C8D8E110CC00FB6AD
:1004D00007FCFACFE889F989808185FFF5CFCE0145
:1004E0000E941302F1CFEB8DEC0FFD2FF11DE35AAB
:1004F000FF4FF0829FB7F8940B8FEA89FB898081C8
:100500008062CFCFCF93DF93EC01888D8823B9F041
:10051000AA89BB89E889F9898C9185FD03C080810E
:1005200086FD0DC00FB607FCF7CF8C9185FFF2CF8B
:10053000808185FFEDCFCE010E941302E9CFDF91CC
:10054000CF910895FC0101900020E9F73197AF01A8
:10055000481B590BBC0183EA91E00C9495018F92E2
:100560009F92AF92BF920F931F93CF93DF93CDB71C
:10057000DEB7A1970FB6F894DEBF0FBECDBF19A2AC
:10058000423008F44AE08E010F5D1F4F842E912CFB
:10059000B12CA12CA50194010E940406E62FB901FB
:1005A000CA01EA30F4F4E05DD801EE938D01232B0B
:1005B000242B252B79F790E080E0109719F0CD01DE
:1005C0000E94A202A1960FB6F894DEBF0FBECDBF67
:1005D000DF91CF911F910F91BF90AF909F908F901F
:1005E0000895E95CE1CFCF92DF92EF92FF92CF9333
:1005F000DF936B017C016DE283EA91E00E9435029A
:10060000EC0166277727CB016C197D098E099F09BC
:100610004AE00E94AF028C0F9D1FDF91CF91FF90A7
:10062000EF90DF90CF900895EF92FF920F931F937A
:10063000CF93DF93EC017B01FB0101900020E9F7F0
:1006400031978F01061B170B88819981009729F03C
:100650002A813B812017310788F4B8016F5F7F4FF3
:100660000E9451070097B9F0998388831B830A83FE
:100670002C813D81232B11F4FC0110821D830C83FE
:10068000B70188819981DF91CF911F910F91FF90E0
:10069000EF900C94170888819981009711F00E94BF
:1006A000C806198218821D821C821B821A82DF9161
:1006B000CF911F910F91FF90EF9008951F920F928D
:1006C0000FB60F9211242F933F938F939F93AF9365
:1006D000BF9380919B0190919C01A0919D01B0914D
:1006E0009E0130919A0123E0230F2D3758F5019692
:1006F000A11DB11D20939A0180939B0190939C01B1
:10070000A0939D01B0939E0180919F019091A001C3
:10071000A091A101B091A2010196A11DB11D8093EC
:100720009F019093A001A093A101B093A201BF915A
:10073000AF919F918F913F912F910F900FBE0F908E
:100740001F90189526E8230F0296A11DB11DD2CF48
:100750001F920F920FB60F9211242F933F934F9336
:100760005F936F937F938F939F93AF93BF93EF9319
:10077000FF9383EA91E00E941302FF91EF91BF91F2
:10078000AF919F918F917F916F915F914F913F9129
:100790002F910F900FBE0F901F9018951F920F92E0
:1007A0000FB60F9211242F938F939F93EF93FF9384
:1007B000E091B301F091B4018081E091B901F09131
:1007C000BA0182FD1BC090818091BC018F5F8F7345
:1007D0002091BD01821741F0E091BC01F0E0ED55A0
:1007E000FE4F958F8093BC01FF91EF919F918F9168
:1007F0002F910F900FBE0F901F9018958081F4CF0E
:10080000CF93DF93E3EAF1E01382128288EE93E064
:10081000A0E0B0E084839583A683B7838AE091E06B
:100820009183808385EC90E09587848784EC90E0C9
:100830009787868780EC90E0918B808B81EC90E0AD
:10084000938B828B82EC90E0958B848B86EC90E08E
:10085000978B868B118E128E138E148EC0E4D2E08D
:1008600082E090E09983888384EF91E0A0E0B0E09B
:100870008A839B83AC83BD8361E082E00E940C018C
:1008800061E08881DF91CF910C94DE00CF93DF93FC
:1008900000D000D000D0CDB7DEB7789484B58260A8
:1008A00084BD84B5816084BD85B5826085BD85B514
:1008B000816085BD80916E00816080936E00109292
:1008C000810080918100826080938100809181000D
:1008D000816080938100809180008160809380009E
:1008E0008091B10084608093B1008091B0008160FC
:1008F0008093B00080917A00846080937A00809128
:100900007A00826080937A0080917A00816080937F
:100910007A0080917A00806880937A001092C100FA
:10092000E091B301F091B40182E08083E091AF01E6
:10093000F091B0011082E091B101F091B2018FEC21
:1009400080831092BB01E091B701F091B80186E07D
:100950008083E091B501F091B60180818061808350
:10096000E091B501F091B601808188608083E091CB
:10097000B501F091B601808180688083E091B50176
:10098000F091B60180818F7D80839BE3C92EDD24A9
:10099000D3943E0126E0620E711C23E7A22EB12CF7
:1009A00030E0832E30E0932E60914202709143023A
:1009B00080914402909145020E94620161E0809121
:1009C00040020E940C0160E0809140020E94DE0023
:1009D00062E170E080E090E00E94620161E080915D
:1009E00040020E94DE008BE990E00197F1F760E0A1
:1009F000809140020E940C018FB7F89420909B01D7
:100A000030909C0140909D0150909E018FBF80913D
:100A100040020E94B5000197A1F52FB7F89480918C
:100A20009B0190919C01A0919D01B0919E012FBFCF
:100A300082199309A409B509893E9340A105B1051E
:100A400030F31A8219821C821B821E821D826CE383
:100A500071E0CE0101960E9414034D815E8169818F
:100A60007A8183EA91E00E94950189E391E00E94F6
:100A7000A20289819A81009709F478C00E94C80671
:100A800075C0809140020E94B500892BD1F6C60145
:100A90000197F1F7809140020E94B500019789F615
:100AA000C6010197F1F78E010F5F1F4F402E312EC7
:100AB00087E0E82EF12C512C809140020E94B50075
:100AC000892BD1F3C5010197F1F7809140020E9473
:100AD000B5008130910531F40E2C01C0880F0A94C5
:100AE000EAF7582A809140020E94B5000197D1F39D
:100AF000F1E0EF1AF10800F7F80151928F01FDEFD4
:100B00005F1609F49ECF0615170591F619810B8122
:100B10004D818A81810F9927991F9C01200F311DDA
:100B20008C81820F932F911D99274817190651F533
:100B300088E191E00E94A202602F70E090E080E0E6
:100B40004AE00E94AF0286E291E00E94A202612F79
:100B500070E090E080E04AE00E94AF0286E391E01E
:100B60000E94A20289E391E00E94A20281149104F2
:100B700009F41ACF0E94FF01882309F415CF0E94BF
:100B8000000012CF1A8219821C821B821E821D82D3
:100B900064E671E0842D932D5ECF2F923F924F92A9
:100BA0005F926F927F928F929F92AF92BF92CF92FD
:100BB000DF92EF92FF920F931F93CF93DF93CDB706
:100BC000DEB7CA1BDB0B0FB6F894DEBF0FBECDBF7E
:100BD00009942A88398848885F846E847D848C844F
:100BE0009B84AA84B984C884DF80EE80FD800C8158
:100BF0001B81AA81B981CE0FD11D0FB6F894DEBF3B
:100C00000FBECDBFED010895A1E21A2EAA1BBB1B9A
:100C1000FD010DC0AA1FBB1FEE1FFF1FA217B307C8
:100C2000E407F50720F0A21BB30BE40BF50B661FDE
:100C3000771F881F991F1A9469F7609570958095A2
:100C400090959B01AC01BD01CF010895EE0FFF1FF0
:100C50000590F491E02D09940F931F93CF93DF93A8
:100C60008230910510F482E090E0E0914802F0912A
:100C7000490230E020E0B0E0A0E0309799F421157F
:100C8000310509F44AC0281B390B24303105D8F549
:100C90008A819B816115710589F1FB0193838283B0
:100CA000FE0111C04081518102811381481759070B
:100CB000E0F04817590799F4109761F012960C93D9
:100CC000129713961C933296CF01DF91CF911F910B
:100CD0000F9108950093480210934902F4CF211513
:100CE000310551F04217530738F0A901DB019A0191
:100CF000BD01DF01F801C1CFEF01F9CF90934902A7
:100D000080934802CDCFFE01E20FF31F81939193B0
:100D10002250310939832883D7CF20914602309160
:100D20004702232B41F420910201309103013093BB
:100D300047022093460220910001309101012115C4
:100D4000310541F42DB73EB74091040150910501A2
:100D5000241B350BE0914602F0914702E217F3079E
:100D6000A0F42E1B3F0B2817390778F0AC014E5F1B
:100D70005F4F2417350748F04E0F5F1F509347020F
:100D800040934602819391939FCFF0E0E0E09CCFA7
:100D9000CF93DF930097E9F0FC0132971382128220
:100DA000A0914802B0914902ED0130E020E0109797
:100DB000A1F420813181820F931F2091460230914E
:100DC00047022817390709F061C0F0934702E09302
:100DD0004602DF91CF910895EA01CE17DF07E8F5CB
:100DE0004A815B819E0141155105B1F7E901FB8301
:100DF000EA8349915991C40FD51FEC17FD0761F49F
:100E0000808191810296840F951FE90199838883DF
:100E1000828193819B838A83F0E0E0E012968D913A
:100E20009C9113970097B9F52D913C911197CD01A5
:100E30000296820F931F2091460230914702281795
:100E4000390739F6309751F510924902109248024D
:100E5000B0934702A0934602BCCFD383C2834081A4
:100E60005181840F951FC817D90761F44E5F5F4FFA
:100E700088819981480F591F518340838A819B81C2
:100E8000938382832115310509F0B0CFF093490295
:100E9000E09348029ECFFD01DC01C0CF1382128295
:100EA000D7CFB0E0A0E0E7E5F7E00C94CF058C01E8
:100EB000009751F4CB010E942C068C01C801CDB7DC
:100EC000DEB7E0E10C94EB05FC01E60FF71F9C0197
:100ED00022503109E217F30708F49DC0D901CD91E2
:100EE000DC911197C617D70798F0C530D10530F3BC
:100EF000CE0104978617970708F3C61BD70B2297D6
:100F0000C193D1936D937C93CF010E94C806D6CF35
:100F10005B01AC1ABD0A4C018C0E9D1EA0914802CB
:100F2000B0914902512C412CF12CE12C109731F554
:100F300080914602909147028815990509F05CC09E
:100F40004616570608F058C08091000190910101A3
:100F5000009741F48DB79EB740910401509105016F
:100F6000841B950BE817F90708F055C0F09347026A
:100F7000E0934602F90171836083A0CF8D919C912B
:100F8000119712966C90129713967C901397A81550
:100F9000B90559F56C0142E0C40ED11CCA14DB043A
:100FA00020F1AC014A195B09DA011296159780F01D
:100FB0006282738251834083D9016D937C93E114E3
:100FC000F10471F0D7011396FC93EE93129776CF4C
:100FD00022968C0F9D1FF90191838083F301EFCF3F
:100FE000F0934902E093480269CF4816590608F485
:100FF0002C017D01D3019ACFCB010E942C067C01EC
:10100000009749F0AE01B8010E940E08C8010E9485
:10101000C806870153CF10E000E050CFFB01DC0190
:1010200002C001900D9241505040D8F70895FB0145
:10103000DC0101900D920020E1F70895F894FFCFB4
:1010400000004A0280000000000035029501C20144
:101050008202F301D101E50154656D70657261741E
:101060007572653A200020C2B0430948756D696405
:101070006974793A20002025000D0A004572726FCC
:1010800072203235332052656164696E6720667262
:101090006F6D2044485431312074696D6564206F50
:1010A00075742E004572726F722032353420436899
:1010B00065636B73756D206D69736D617463682012
:1010C0007768696C652072656164696E6720667215
:0A10D0006F6D2044485431312E00AA
:00000001FF
